{
  "_format": "hh-sol-artifact-1",
  "contractName": "NotesApp",
  "sourceName": "contracts/NotesApp.sol",
  "abi": [
    {
      "anonymous": false,
      "inputs": [
        {
          "indexed": true,
          "internalType": "address",
          "name": "owner",
          "type": "address"
        },
        {
          "indexed": true,
          "internalType": "uint256",
          "name": "noteId",
          "type": "uint256"
        },
        {
          "indexed": false,
          "internalType": "string",
          "name": "title",
          "type": "string"
        }
      ],
      "name": "NoteCreated",
      "type": "event"
    },
    {
      "anonymous": false,
      "inputs": [
        {
          "indexed": true,
          "internalType": "address",
          "name": "owner",
          "type": "address"
        },
        {
          "indexed": true,
          "internalType": "uint256",
          "name": "noteId",
          "type": "uint256"
        }
      ],
      "name": "NoteDeleted",
      "type": "event"
    },
    {
      "anonymous": false,
      "inputs": [
        {
          "indexed": true,
          "internalType": "address",
          "name": "owner",
          "type": "address"
        },
        {
          "indexed": true,
          "internalType": "uint256",
          "name": "noteId",
          "type": "uint256"
        },
        {
          "indexed": false,
          "internalType": "bool",
          "name": "isFavourite",
          "type": "bool"
        }
      ],
      "name": "NoteFavouriteToggled",
      "type": "event"
    },
    {
      "anonymous": false,
      "inputs": [
        {
          "indexed": true,
          "internalType": "address",
          "name": "owner",
          "type": "address"
        },
        {
          "indexed": true,
          "internalType": "uint256",
          "name": "noteId",
          "type": "uint256"
        },
        {
          "indexed": false,
          "internalType": "string",
          "name": "title",
          "type": "string"
        }
      ],
      "name": "NoteUpdated",
      "type": "event"
    },
    {
      "inputs": [
        {
          "internalType": "string",
          "name": "title",
          "type": "string"
        },
        {
          "internalType": "bytes32",
          "name": "encryptedContent",
          "type": "bytes32"
        },
        {
          "internalType": "string",
          "name": "tags",
          "type": "string"
        },
        {
          "internalType": "bytes",
          "name": "",
          "type": "bytes"
        }
      ],
      "name": "createNote",
      "outputs": [],
      "stateMutability": "nonpayable",
      "type": "function"
    },
    {
      "inputs": [
        {
          "internalType": "uint256",
          "name": "noteId",
          "type": "uint256"
        }
      ],
      "name": "deleteNote",
      "outputs": [],
      "stateMutability": "nonpayable",
      "type": "function"
    },
    {
      "inputs": [
        {
          "internalType": "address",
          "name": "user",
          "type": "address"
        },
        {
          "internalType": "uint256",
          "name": "noteId",
          "type": "uint256"
        }
      ],
      "name": "getNote",
      "outputs": [
        {
          "components": [
            {
              "internalType": "address",
              "name": "owner",
              "type": "address"
            },
            {
              "internalType": "string",
              "name": "title",
              "type": "string"
            },
            {
              "internalType": "bytes32",
              "name": "encryptedContent",
              "type": "bytes32"
            },
            {
              "internalType": "string",
              "name": "tags",
              "type": "string"
            },
            {
              "internalType": "bool",
              "name": "isFavourite",
              "type": "bool"
            },
            {
              "internalType": "uint256",
              "name": "createdAt",
              "type": "uint256"
            },
            {
              "internalType": "uint256",
              "name": "updatedAt",
              "type": "uint256"
            },
            {
              "internalType": "bool",
              "name": "exists",
              "type": "bool"
            }
          ],
          "internalType": "struct NotesApp.Note",
          "name": "",
          "type": "tuple"
        }
      ],
      "stateMutability": "view",
      "type": "function"
    },
    {
      "inputs": [
        {
          "internalType": "address",
          "name": "user",
          "type": "address"
        }
      ],
      "name": "getUserNoteCount",
      "outputs": [
        {
          "internalType": "uint256",
          "name": "",
          "type": "uint256"
        }
      ],
      "stateMutability": "view",
      "type": "function"
    },
    {
      "inputs": [
        {
          "internalType": "address",
          "name": "user",
          "type": "address"
        }
      ],
      "name": "getUserNotes",
      "outputs": [
        {
          "components": [
            {
              "internalType": "address",
              "name": "owner",
              "type": "address"
            },
            {
              "internalType": "string",
              "name": "title",
              "type": "string"
            },
            {
              "internalType": "bytes32",
              "name": "encryptedContent",
              "type": "bytes32"
            },
            {
              "internalType": "string",
              "name": "tags",
              "type": "string"
            },
            {
              "internalType": "bool",
              "name": "isFavourite",
              "type": "bool"
            },
            {
              "internalType": "uint256",
              "name": "createdAt",
              "type": "uint256"
            },
            {
              "internalType": "uint256",
              "name": "updatedAt",
              "type": "uint256"
            },
            {
              "internalType": "bool",
              "name": "exists",
              "type": "bool"
            }
          ],
          "internalType": "struct NotesApp.Note[]",
          "name": "",
          "type": "tuple[]"
        }
      ],
      "stateMutability": "view",
      "type": "function"
    },
    {
      "inputs": [
        {
          "internalType": "address",
          "name": "",
          "type": "address"
        }
      ],
      "name": "noteCount",
      "outputs": [
        {
          "internalType": "uint256",
          "name": "",
          "type": "uint256"
        }
      ],
      "stateMutability": "view",
      "type": "function"
    },
    {
      "inputs": [
        {
          "internalType": "uint256",
          "name": "noteId",
          "type": "uint256"
        }
      ],
      "name": "toggleFavourite",
      "outputs": [],
      "stateMutability": "nonpayable",
      "type": "function"
    },
    {
      "inputs": [
        {
          "internalType": "uint256",
          "name": "noteId",
          "type": "uint256"
        },
        {
          "internalType": "string",
          "name": "title",
          "type": "string"
        },
        {
          "internalType": "bytes32",
          "name": "encryptedContent",
          "type": "bytes32"
        },
        {
          "internalType": "string",
          "name": "tags",
          "type": "string"
        },
        {
          "internalType": "bytes",
          "name": "",
          "type": "bytes"
        }
      ],
      "name": "updateNote",
      "outputs": [],
      "stateMutability": "nonpayable",
      "type": "function"
    },
    {
      "inputs": [
        {
          "internalType": "address",
          "name": "",
          "type": "address"
        },
        {
          "internalType": "uint256",
          "name": "",
          "type": "uint256"
        }
      ],
      "name": "userNotes",
      "outputs": [
        {
          "internalType": "address",
          "name": "owner",
          "type": "address"
        },
        {
          "internalType": "string",
          "name": "title",
          "type": "string"
        },
        {
          "internalType": "bytes32",
          "name": "encryptedContent",
          "type": "bytes32"
        },
        {
          "internalType": "string",
          "name": "tags",
          "type": "string"
        },
        {
          "internalType": "bool",
          "name": "isFavourite",
          "type": "bool"
        },
        {
          "internalType": "uint256",
          "name": "createdAt",
          "type": "uint256"
        },
        {
          "internalType": "uint256",
          "name": "updatedAt",
          "type": "uint256"
        },
        {
          "internalType": "bool",
          "name": "exists",
          "type": "bool"
        }
      ],
      "stateMutability": "view",
      "type": "function"
    }
  ],
  "bytecode": "0x608060405234801561001057600080fd5b50612792806100206000396000f3fe608060405234801561001057600080fd5b50600436106100935760003560e01c8063186ffcc811610066578063186ffcc81461011c578063c47177f41461014c578063d0ccd9f814610168578063dc950d3614610198578063eb028352146101c857610093565b806306c11ac01461009857806310cf334b146100b4578063137929b4146100d057806316835d3d14610100575b600080fd5b6100b260048036038101906100ad919061181c565b6101ff565b005b6100ce60048036038101906100c99190611a25565b6105c7565b005b6100ea60048036038101906100e59190611b55565b6109e8565b6040516100f79190611d13565b60405180910390f35b61011a60048036038101906101159190611d35565b610cb3565b005b61013660048036038101906101319190611df5565b610fbe565b6040516101439190611e31565b60405180910390f35b6101666004803603810190610161919061181c565b611007565b005b610182600480360381019061017d9190611df5565b61133d565b60405161018f9190611fc5565b60405180910390f35b6101b260048036038101906101ad9190611df5565b6115a9565b6040516101bf9190611e31565b60405180910390f35b6101e260048036038101906101dd9190611b55565b6115c1565b6040516101f698979695949392919061205e565b60405180910390f35b6000803373ffffffffffffffffffffffffffffffffffffffff1673ffffffffffffffffffffffffffffffffffffffff168152602001908152602001600020805490508110610282576040517f08c379a000000000000000000000000000000000000000000000000000000000815260040161027990612136565b60405180910390fd5b6000803373ffffffffffffffffffffffffffffffffffffffff1673ffffffffffffffffffffffffffffffffffffffff16815260200190815260200160002081815481106102d2576102d1612156565b5b906000526020600020906008020160070160009054906101000a900460ff16610330576040517f08c379a0000000000000000000000000000000000000000000000000000000008152600401610327906121d1565b60405180910390fd5b3373ffffffffffffffffffffffffffffffffffffffff166000803373ffffffffffffffffffffffffffffffffffffffff1673ffffffffffffffffffffffffffffffffffffffff168152602001908152602001600020828154811061039757610396612156565b5b906000526020600020906008020160000160009054906101000a900473ffffffffffffffffffffffffffffffffffffffff1673ffffffffffffffffffffffffffffffffffffffff161461041f576040517f08c379a00000000000000000000000000000000000000000000000000000000081526004016104169061223d565b60405180910390fd5b6000803373ffffffffffffffffffffffffffffffffffffffff1673ffffffffffffffffffffffffffffffffffffffff168152602001908152602001600020818154811061046f5761046e612156565b5b906000526020600020906008020160040160009054906101000a900460ff16156000803373ffffffffffffffffffffffffffffffffffffffff1673ffffffffffffffffffffffffffffffffffffffff16815260200190815260200160002082815481106104df576104de612156565b5b906000526020600020906008020160040160006101000a81548160ff021916908315150217905550803373ffffffffffffffffffffffffffffffffffffffff167f0f933769a3036413d2154686a3cbe08894512de8b9fbea7136c6b8c3b86e9e106000803373ffffffffffffffffffffffffffffffffffffffff1673ffffffffffffffffffffffffffffffffffffffff16815260200190815260200160002084815481106105905761058f612156565b5b906000526020600020906008020160040160009054906101000a900460ff166040516105bc919061225d565b60405180910390a350565b6000803373ffffffffffffffffffffffffffffffffffffffff1673ffffffffffffffffffffffffffffffffffffffff16815260200190815260200160002080549050861061064a576040517f08c379a000000000000000000000000000000000000000000000000000000000815260040161064190612136565b60405180910390fd5b6000803373ffffffffffffffffffffffffffffffffffffffff1673ffffffffffffffffffffffffffffffffffffffff168152602001908152602001600020868154811061069a57610699612156565b5b906000526020600020906008020160070160009054906101000a900460ff166106f8576040517f08c379a00000000000000000000000000000000000000000000000000000000081526004016106ef906121d1565b60405180910390fd5b3373ffffffffffffffffffffffffffffffffffffffff166000803373ffffffffffffffffffffffffffffffffffffffff1673ffffffffffffffffffffffffffffffffffffffff168152602001908152602001600020878154811061075f5761075e612156565b5b906000526020600020906008020160000160009054906101000a900473ffffffffffffffffffffffffffffffffffffffff1673ffffffffffffffffffffffffffffffffffffffff16146107e7576040517f08c379a00000000000000000000000000000000000000000000000000000000081526004016107de9061223d565b60405180910390fd5b846000803373ffffffffffffffffffffffffffffffffffffffff1673ffffffffffffffffffffffffffffffffffffffff168152602001908152602001600020878154811061083857610837612156565b5b906000526020600020906008020160010190816108559190612484565b50836000803373ffffffffffffffffffffffffffffffffffffffff1673ffffffffffffffffffffffffffffffffffffffff16815260200190815260200160002087815481106108a7576108a6612156565b5b906000526020600020906008020160020181905550826000803373ffffffffffffffffffffffffffffffffffffffff1673ffffffffffffffffffffffffffffffffffffffff168152602001908152602001600020878154811061090d5761090c612156565b5b9060005260206000209060080201600301908161092a9190612484565b50426000803373ffffffffffffffffffffffffffffffffffffffff1673ffffffffffffffffffffffffffffffffffffffff168152602001908152602001600020878154811061097c5761097b612156565b5b906000526020600020906008020160060181905550853373ffffffffffffffffffffffffffffffffffffffff167fb0100bbca45c234e4f5c80dec82419c3ad0df20bdcee2651b78097dce9238f8d876040516109d89190612556565b60405180910390a3505050505050565b6109f0611770565b6000808473ffffffffffffffffffffffffffffffffffffffff1673ffffffffffffffffffffffffffffffffffffffff168152602001908152602001600020805490508210610a73576040517f08c379a0000000000000000000000000000000000000000000000000000000008152600401610a6a90612136565b60405180910390fd5b6000808473ffffffffffffffffffffffffffffffffffffffff1673ffffffffffffffffffffffffffffffffffffffff1681526020019081526020016000208281548110610ac357610ac2612156565b5b9060005260206000209060080201604051806101000160405290816000820160009054906101000a900473ffffffffffffffffffffffffffffffffffffffff1673ffffffffffffffffffffffffffffffffffffffff1673ffffffffffffffffffffffffffffffffffffffff168152602001600182018054610b43906122a7565b80601f0160208091040260200160405190810160405280929190818152602001828054610b6f906122a7565b8015610bbc5780601f10610b9157610100808354040283529160200191610bbc565b820191906000526020600020905b815481529060010190602001808311610b9f57829003601f168201915b5050505050815260200160028201548152602001600382018054610bdf906122a7565b80601f0160208091040260200160405190810160405280929190818152602001828054610c0b906122a7565b8015610c585780601f10610c2d57610100808354040283529160200191610c58565b820191906000526020600020905b815481529060010190602001808311610c3b57829003601f168201915b505050505081526020016004820160009054906101000a900460ff1615151515815260200160058201548152602001600682015481526020016007820160009054906101000a900460ff161515151581525050905092915050565b6000855111610cf7576040517f08c379a0000000000000000000000000000000000000000000000000000000008152600401610cee906125c4565b60405180910390fd5b6000801b8403610d3c576040517f08c379a0000000000000000000000000000000000000000000000000000000008152600401610d3390612630565b60405180910390fd5b60008060003373ffffffffffffffffffffffffffffffffffffffff1673ffffffffffffffffffffffffffffffffffffffff1681526020019081526020016000208054905090506000803373ffffffffffffffffffffffffffffffffffffffff1673ffffffffffffffffffffffffffffffffffffffff1681526020019081526020016000206040518061010001604052803373ffffffffffffffffffffffffffffffffffffffff16815260200188815260200187815260200186815260200160001515815260200142815260200142815260200160011515815250908060018154018082558091505060019003906000526020600020906008020160009091909190915060008201518160000160006101000a81548173ffffffffffffffffffffffffffffffffffffffff021916908373ffffffffffffffffffffffffffffffffffffffff1602179055506020820151816001019081610e9b9190612484565b50604082015181600201556060820151816003019081610ebb9190612484565b5060808201518160040160006101000a81548160ff02191690831515021790555060a0820151816005015560c0820151816006015560e08201518160070160006101000a81548160ff0219169083151502179055505050600160003373ffffffffffffffffffffffffffffffffffffffff1673ffffffffffffffffffffffffffffffffffffffff1681526020019081526020016000206000815480929190610f629061267f565b9190505550803373ffffffffffffffffffffffffffffffffffffffff167f01992f08b52f351c25a7b404ab5560aeff75958edcb69d21a877e04cf2a52bdf88604051610fae9190612556565b60405180910390a3505050505050565b6000600160008373ffffffffffffffffffffffffffffffffffffffff1673ffffffffffffffffffffffffffffffffffffffff168152602001908152602001600020549050919050565b6000803373ffffffffffffffffffffffffffffffffffffffff1673ffffffffffffffffffffffffffffffffffffffff16815260200190815260200160002080549050811061108a576040517f08c379a000000000000000000000000000000000000000000000000000000000815260040161108190612136565b60405180910390fd5b6000803373ffffffffffffffffffffffffffffffffffffffff1673ffffffffffffffffffffffffffffffffffffffff16815260200190815260200160002081815481106110da576110d9612156565b5b906000526020600020906008020160070160009054906101000a900460ff16611138576040517f08c379a000000000000000000000000000000000000000000000000000000000815260040161112f90612713565b60405180910390fd5b3373ffffffffffffffffffffffffffffffffffffffff166000803373ffffffffffffffffffffffffffffffffffffffff1673ffffffffffffffffffffffffffffffffffffffff168152602001908152602001600020828154811061119f5761119e612156565b5b906000526020600020906008020160000160009054906101000a900473ffffffffffffffffffffffffffffffffffffffff1673ffffffffffffffffffffffffffffffffffffffff1614611227576040517f08c379a000000000000000000000000000000000000000000000000000000000815260040161121e9061223d565b60405180910390fd5b60008060003373ffffffffffffffffffffffffffffffffffffffff1673ffffffffffffffffffffffffffffffffffffffff168152602001908152602001600020828154811061127957611278612156565b5b906000526020600020906008020160070160006101000a81548160ff021916908315150217905550600160003373ffffffffffffffffffffffffffffffffffffffff1673ffffffffffffffffffffffffffffffffffffffff16815260200190815260200160002060008154809291906112f190612733565b9190505550803373ffffffffffffffffffffffffffffffffffffffff167fab9e4514a74f5b1933f08ac8f9833934a73b0bff8a2707cb83ad0aeabe63d22460405160405180910390a350565b60606000808373ffffffffffffffffffffffffffffffffffffffff1673ffffffffffffffffffffffffffffffffffffffff168152602001908152602001600020805480602002602001604051908101604052809291908181526020016000905b8282101561159e5783829060005260206000209060080201604051806101000160405290816000820160009054906101000a900473ffffffffffffffffffffffffffffffffffffffff1673ffffffffffffffffffffffffffffffffffffffff1673ffffffffffffffffffffffffffffffffffffffff168152602001600182018054611427906122a7565b80601f0160208091040260200160405190810160405280929190818152602001828054611453906122a7565b80156114a05780601f10611475576101008083540402835291602001916114a0565b820191906000526020600020905b81548152906001019060200180831161148357829003601f168201915b50505050508152602001600282015481526020016003820180546114c3906122a7565b80601f01602080910402602001604051908101604052809291908181526020018280546114ef906122a7565b801561153c5780601f106115115761010080835404028352916020019161153c565b820191906000526020600020905b81548152906001019060200180831161151f57829003601f168201915b505050505081526020016004820160009054906101000a900460ff1615151515815260200160058201548152602001600682015481526020016007820160009054906101000a900460ff1615151515815250508152602001906001019061139d565b505050509050919050565b60016020528060005260406000206000915090505481565b600060205281600052604060002081815481106115dd57600080fd5b9060005260206000209060080201600091509150508060000160009054906101000a900473ffffffffffffffffffffffffffffffffffffffff1690806001018054611627906122a7565b80601f0160208091040260200160405190810160405280929190818152602001828054611653906122a7565b80156116a05780601f10611675576101008083540402835291602001916116a0565b820191906000526020600020905b81548152906001019060200180831161168357829003601f168201915b5050505050908060020154908060030180546116bb906122a7565b80601f01602080910402602001604051908101604052809291908181526020018280546116e7906122a7565b80156117345780601f1061170957610100808354040283529160200191611734565b820191906000526020600020905b81548152906001019060200180831161171757829003601f168201915b5050505050908060040160009054906101000a900460ff16908060050154908060060154908060070160009054906101000a900460ff16905088565b604051806101000160405280600073ffffffffffffffffffffffffffffffffffffffff16815260200160608152602001600080191681526020016060815260200160001515815260200160008152602001600081526020016000151581525090565b6000604051905090565b600080fd5b600080fd5b6000819050919050565b6117f9816117e6565b811461180457600080fd5b50565b600081359050611816816117f0565b92915050565b600060208284031215611832576118316117dc565b5b600061184084828501611807565b91505092915050565b600080fd5b600080fd5b6000601f19601f8301169050919050565b7f4e487b7100000000000000000000000000000000000000000000000000000000600052604160045260246000fd5b61189c82611853565b810181811067ffffffffffffffff821117156118bb576118ba611864565b5b80604052505050565b60006118ce6117d2565b90506118da8282611893565b919050565b600067ffffffffffffffff8211156118fa576118f9611864565b5b61190382611853565b9050602081019050919050565b82818337600083830152505050565b600061193261192d846118df565b6118c4565b90508281526020810184848401111561194e5761194d61184e565b5b611959848285611910565b509392505050565b600082601f83011261197657611975611849565b5b813561198684826020860161191f565b91505092915050565b6000819050919050565b6119a28161198f565b81146119ad57600080fd5b50565b6000813590506119bf81611999565b92915050565b600080fd5b600080fd5b60008083601f8401126119e5576119e4611849565b5b8235905067ffffffffffffffff811115611a0257611a016119c5565b5b602083019150836001820283011115611a1e57611a1d6119ca565b5b9250929050565b60008060008060008060a08789031215611a4257611a416117dc565b5b6000611a5089828a01611807565b965050602087013567ffffffffffffffff811115611a7157611a706117e1565b5b611a7d89828a01611961565b9550506040611a8e89828a016119b0565b945050606087013567ffffffffffffffff811115611aaf57611aae6117e1565b5b611abb89828a01611961565b935050608087013567ffffffffffffffff811115611adc57611adb6117e1565b5b611ae889828a016119cf565b92509250509295509295509295565b600073ffffffffffffffffffffffffffffffffffffffff82169050919050565b6000611b2282611af7565b9050919050565b611b3281611b17565b8114611b3d57600080fd5b50565b600081359050611b4f81611b29565b92915050565b60008060408385031215611b6c57611b6b6117dc565b5b6000611b7a85828601611b40565b9250506020611b8b85828601611807565b9150509250929050565b611b9e81611b17565b82525050565b600081519050919050565b600082825260208201905092915050565b60005b83811015611bde578082015181840152602081019050611bc3565b60008484015250505050565b6000611bf582611ba4565b611bff8185611baf565b9350611c0f818560208601611bc0565b611c1881611853565b840191505092915050565b611c2c8161198f565b82525050565b60008115159050919050565b611c4781611c32565b82525050565b611c56816117e6565b82525050565b600061010083016000830151611c756000860182611b95565b5060208301518482036020860152611c8d8282611bea565b9150506040830151611ca26040860182611c23565b5060608301518482036060860152611cba8282611bea565b9150506080830151611ccf6080860182611c3e565b5060a0830151611ce260a0860182611c4d565b5060c0830151611cf560c0860182611c4d565b5060e0830151611d0860e0860182611c3e565b508091505092915050565b60006020820190508181036000830152611d2d8184611c5c565b905092915050565b600080600080600060808688031215611d5157611d506117dc565b5b600086013567ffffffffffffffff811115611d6f57611d6e6117e1565b5b611d7b88828901611961565b9550506020611d8c888289016119b0565b945050604086013567ffffffffffffffff811115611dad57611dac6117e1565b5b611db988828901611961565b935050606086013567ffffffffffffffff811115611dda57611dd96117e1565b5b611de6888289016119cf565b92509250509295509295909350565b600060208284031215611e0b57611e0a6117dc565b5b6000611e1984828501611b40565b91505092915050565b611e2b816117e6565b82525050565b6000602082019050611e466000830184611e22565b92915050565b600081519050919050565b600082825260208201905092915050565b6000819050602082019050919050565b600061010083016000830151611e916000860182611b95565b5060208301518482036020860152611ea98282611bea565b9150506040830151611ebe6040860182611c23565b5060608301518482036060860152611ed68282611bea565b9150506080830151611eeb6080860182611c3e565b5060a0830151611efe60a0860182611c4d565b5060c0830151611f1160c0860182611c4d565b5060e0830151611f2460e0860182611c3e565b508091505092915050565b6000611f3b8383611e78565b905092915050565b6000602082019050919050565b6000611f5b82611e4c565b611f658185611e57565b935083602082028501611f7785611e68565b8060005b85811015611fb35784840389528151611f948582611f2f565b9450611f9f83611f43565b925060208a01995050600181019050611f7b565b50829750879550505050505092915050565b60006020820190508181036000830152611fdf8184611f50565b905092915050565b611ff081611b17565b82525050565b600082825260208201905092915050565b600061201282611ba4565b61201c8185611ff6565b935061202c818560208601611bc0565b61203581611853565b840191505092915050565b6120498161198f565b82525050565b61205881611c32565b82525050565b600061010082019050612074600083018b611fe7565b8181036020830152612086818a612007565b90506120956040830189612040565b81810360608301526120a78188612007565b90506120b6608083018761204f565b6120c360a0830186611e22565b6120d060c0830185611e22565b6120dd60e083018461204f565b9998505050505050505050565b7f4e6f746520646f6573206e6f7420657869737400000000000000000000000000600082015250565b6000612120601383611ff6565b915061212b826120ea565b602082019050919050565b6000602082019050818103600083015261214f81612113565b9050919050565b7f4e487b7100000000000000000000000000000000000000000000000000000000600052603260045260246000fd5b7f4e6f74652064656c657465640000000000000000000000000000000000000000600082015250565b60006121bb600c83611ff6565b91506121c682612185565b602082019050919050565b600060208201905081810360008301526121ea816121ae565b9050919050565b7f4e6f7420796f7572206e6f746500000000000000000000000000000000000000600082015250565b6000612227600d83611ff6565b9150612232826121f1565b602082019050919050565b600060208201905081810360008301526122568161221a565b9050919050565b6000602082019050612272600083018461204f565b92915050565b7f4e487b7100000000000000000000000000000000000000000000000000000000600052602260045260246000fd5b600060028204905060018216806122bf57607f821691505b6020821081036122d2576122d1612278565b5b50919050565b60008190508160005260206000209050919050565b60006020601f8301049050919050565b600082821b905092915050565b60006008830261233a7fffffffffffffffffffffffffffffffffffffffffffffffffffffffffffffffff826122fd565b61234486836122fd565b95508019841693508086168417925050509392505050565b6000819050919050565b600061238161237c612377846117e6565b61235c565b6117e6565b9050919050565b6000819050919050565b61239b83612366565b6123af6123a782612388565b84845461230a565b825550505050565b600090565b6123c46123b7565b6123cf818484612392565b505050565b5b818110156123f3576123e86000826123bc565b6001810190506123d5565b5050565b601f82111561243857612409816122d8565b612412846122ed565b81016020851015612421578190505b61243561242d856122ed565b8301826123d4565b50505b505050565b600082821c905092915050565b600061245b6000198460080261243d565b1980831691505092915050565b6000612474838361244a565b9150826002028217905092915050565b61248d82611ba4565b67ffffffffffffffff8111156124a6576124a5611864565b5b6124b082546122a7565b6124bb8282856123f7565b600060209050601f8311600181146124ee57600084156124dc578287015190505b6124e68582612468565b86555061254e565b601f1984166124fc866122d8565b60005b82811015612524578489015182556001820191506020850194506020810190506124ff565b86831015612541578489015161253d601f89168261244a565b8355505b6001600288020188555050505b505050505050565b600060208201905081810360008301526125708184612007565b905092915050565b7f5469746c65207265717569726564000000000000000000000000000000000000600082015250565b60006125ae600e83611ff6565b91506125b982612578565b602082019050919050565b600060208201905081810360008301526125dd816125a1565b9050919050565b7f436f6e74656e7420726571756972656400000000000000000000000000000000600082015250565b600061261a601083611ff6565b9150612625826125e4565b602082019050919050565b600060208201905081810360008301526126498161260d565b9050919050565b7f4e487b7100000000000000000000000000000000000000000000000000000000600052601160045260246000fd5b600061268a826117e6565b91507fffffffffffffffffffffffffffffffffffffffffffffffffffffffffffffffff82036126bc576126bb612650565b5b600182019050919050565b7f4e6f746520616c72656164792064656c65746564000000000000000000000000600082015250565b60006126fd601483611ff6565b9150612708826126c7565b602082019050919050565b6000602082019050818103600083015261272c816126f0565b9050919050565b600061273e826117e6565b91506000820361275157612750612650565b5b60018203905091905056fea2646970667358221220e3613f88b48d24baae2cacc6a796ab92a7ffbe95f232e377a7e51c8698f14e0864736f6c63430008140033",
  "linkReferences": {},
  "deployedLinkReferences": {}
}